:020000040800F2
:1000000018080020E10100089F1D0008991C000845
:100010009D1D00086D0E0008C51F000800000000AF
:10002000000000000000000000000000A31D000808
:100030006F0E000800000000A11D0008A51D0008AB
:10004000FB010008FB010008FB010008FB010008A0
:10005000FB010008FB010008FB010008FB01000890
:10006000FB010008FB010008FB010008FB01000880
:10007000FB010008FB010008FB010008FB01000870
:10008000FB010008FB010008FB010008FB01000860
:10009000FB010008FB010008FB010008FB01000850
:1000A000FB010008FB010008FB010008FB01000840
:1000B000FB010008FB010008FB010008FB01000830
:1000C000FB010008FB010008FB010008FB01000820
:1000D000FB010008B91F0008FB010008FB01000834
:1000E000FB010008FB010008FB010008FB01000800
:1000F000FB010008FB010008FB010008FB010008F0
:10010000FB010008FB010008FB010008FB010008DF
:10011000FB010008FB010008FB010008FB010008CF
:10012000FB010008FB010008FB010008FB010008BF
:1001300000F002F800F044F80AA090E8000C8244B5
:100140008344AAF10107DA4501D100F039F8AFF292
:10015000090EBAE80F0013F0010F18BFFB1A43F0A5
:1001600001031847781F0000981F0000103A24BFB1
:1001700078C878C1FAD8520724BF30C830C144BF0C
:1001800004680C607047000000230024002500264E
:10019000103A28BF78C1FBD8520728BF30C148BFEA
:1001A0000B607047002070471FB59DE8030000F00A
:1001B0002FFC00F035F91FBD10B500F09AF910BD05
:1001C00000F0FDF91146FFF7EFFF01F021FF00F00D
:1001D000EDFB03B4FFF7F0FF03BC00F0ABFD000044
:1001E0000948804709480047FEE7FEE7FEE7FEE7CB
:1001F000FEE7FEE7FEE7FEE7FEE7FEE70448054907
:10020000054A064B70470000071E00083101000830
:1002100018020020180800201804002018040020EC
:100220000FB4044910B503AA029800F0E3F810BC1B
:100230005DF814FB0C0100202DE9F05F89460446AF
:100240004FF0000ADFF824B1FB44C0F820A020469C
:10025000E168884700287DD0252806D0D4E901210F
:100260009047206A401C2062F1E700255F46204647
:10027000E16888472028064607DB312E05D2B819E9
:1002800010F8200C08B10543F1E7A80701D525F0C7
:100290000405C4F81CA00027C4F818A02A2E09D011
:1002A000304601F0A0FE38B304EB8708303EC8F8B2
:1002B000186019E059F8041B204604EB870291618D
:1002C000E1688847012F064618D1E069002820DA46
:1002D00025F020051DE0D8F8180000EB800006EBA3
:1002E00040003038C8F818002046E16888470646C4
:1002F00001F079FE0028EED1012F0AD02E2E08D170
:100300002046E16888477F1C0646022F45F02005FD
:10031000C4DBA069002803DA404245F00105A06172
:10032000E80701D025F01005A6B1A6F14100192873
:1003300002D8203645F400654A46314620462560FD
:100340004D46FFF72FFF60B1012807D0ED1D25F0C6
:10035000070000E007E000F1080978E705F104096B
:1003600075E730467AE7206ABDE8F09F701E00000E
:100370004FF0000200B5134694469646203922BF3E
:10038000A0E80C50A0E80C50B1F12001BFF4F7AF89
:10039000090728BFA0E80C5048BF0CC05DF804EB6B
:1003A000890028BF40F8042B08BF704748BF20F8D9
:1003B000022B11F0804F18BF00F8012B70477047D7
:1003C0007047704701694A1C02610878704700B5A0
:1003D0008FB0CDE901310021059105497944CDE97E
:1003E000031011466846FFF727FF0FB000BD00005D
:1003F000E5FFFFFF074B70B50D467B44FFF7E7FFB6
:100400000446284600F008F810B14FF0FF3070BDE8
:10041000204670BDF71B0000007B00F08000704795
:1004200010B542485421FFF7A3FF41485421FFF77C
:100430009FFF40485421FFF79BFF3F493B483C4A00
:100440003F4B08603D490A603A491960531C0365F7
:10045000481C1065012008653B48344A39A178449E
:1004600000F008FA20B9384878440A3800F0A7FAB2
:1004700037482F4A35A1784400F0FCF920B93448B8
:1004800078440A3800F09BFA32482A4A2FA178446F
:1004900000F0F0F920B92F4878440A3800F08FFABC
:1004A00040232248DC000021224600F0BFF920B1A1
:1004B00025487844543800F082FA1D4822464023EB
:1004C000002100F0B3F920B121487844543800F0FD
:1004D00076FA184822461023002100F0A7F90028D8
:1004E00006D01C487844BDE81040563800F067BA82
:1004F00010BD104870B5006D20F001040B4800F0ED
:100500002FFA0B4800F02CFA0A4800F029FA09E00B
:10051000206D20F00105204600F022FA204600F070
:1005200073F82C46002CF3D170BD0000B8000020F9
:100530000C010020600100201000002014000020A9
:1005400018000020720000006B1C00007700000003
:10055000571C0000431C00000EB5CDE9000100F05F
:10056000C9FB029069460120ABBE0EBD08B56946C5
:1005700000900220ABBE08BD1FB58DE8070069469C
:100580000520ABBE04B010BD1FB58DE80F00694655
:100590000620ABBEF6E708B5694600900920ABBE61
:1005A00008BD1CB5CDE9000169460A20ABBE1CBDE3
:1005B000704708B5694600900C20ABBE08BD754673
:1005C00000F004FAAE4605006946534620F00700E5
:1005D000854618B020B5FFF711FEBDE820404FF06A
:1005E00000064FF000074FF000084FF0000B21F01D
:1005F0000701AC46ACE8C009ACE8C009ACE8C009EA
:10060000ACE8C0098D46704770B50446051F00F080
:10061000E3F90068002C14BF446870BD002C18BFBB
:10062000AC423CBF20466468F8D301680A18AA426D
:1006300018BF456003D12A68054611440160286847
:100640004119A1421CBF6C6070BD6168696021687E
:100650000844286070BD2DE9F04705460C46C8687F
:1006600020F4201040F48000C860800602D50846BF
:1006700000F0FFFAE06841F282014FF0FF390140DB
:10068000022903D0204600F09DFAB5E000F4204195
:10069000B1F5004F0FD1C00306D56168E06A88420A
:1006A00000D80846606006E02069E062606060692A
:1006B000FFF77FFFA061A0680022EEB200280DDAEC
:1006C000E1688B050AD4C043A06041F490302260F9
:1006D000E0606068411C61600670A5E0E0689046DB
:1006E000226040F40050E060206968BB6069FFF759
:1006F00052FF012704F12405A0B1A08910F4407F26
:1007000008D0E06900F0B3F9206118B1E06840F466
:10071000006016E0E7612561E06820F4407040F475
:1007200080600EE0E06900F0A2F900282061F1D0BD
:10073000E06840F4006010F4407FE06002D140F4D3
:100740008070E06020696060E06825696FF0010AF0
:10075000C1051FD56168E06A884200D80846411B80
:1007600004D02246284600F037FAF0BBE0680102C8
:1007700003D5E562C4E9015854E0691CE162616097
:10078000E16940F48030491EC4E9021030462E7001
:10079000BDE8F087010202D500F480320AE060680B
:1007A000411C61600670E0680A2E40F48030E06011
:1007B00006D00022E16A6068814203D90B4602E05C
:1007C0000122F7E70346A7895B1B7F0503D4E7698E
:1007D0009F4200DDE2B1814200D80146E5620F1A76
:1007E000C4E90158002B09DD00E005E02246194666
:1007F000284600F0F1F908B14846C9E747B1A069B9
:10080000E5626560C01BA061E06840F01000E06038
:10081000E068000208D56168A069E562491B0844E8
:100820006560A0615046B3E73046B1E770B5C46873
:10083000A50713D0650211D4B2F5807F09D0B2F5B7
:10084000007F06D0B2F5806F08D1012300F12401AA
:1008500006E05D1E6FF07F46B54201D3012070BDFA
:100860000161C361416024F470611143C1600020E3
:1008700070BD00002DE9F0410C46074616461046B3
:1008800000F06EF82078611C61280AD0722802D02E
:1008900077283CD102E00125002405E0022504244C
:1008A00002E0082448F2020511F8010B2B2806D0BB
:1008B000622809D011F8010C74280AD00BE045F029
:1008C000030544F00204EFE745F0040544F0010499
:1008D000EAE744F0100438462146FFF73DFE411C8C
:1008E00015D00021316171604FF40071F560F16144
:1008F0007061200704D530460222002100F0E6F89E
:10090000306D40F0010030653046BDE8F0810020D8
:10091000FBE72DE9F0410D460646104C206DC1075E
:1009200004D0410804D020F00104F7E722460EE08D
:10093000542000F09CF807000ED0206D47F0010114
:100940000843542120653846FFF712FD3A462946F0
:100950003046BDE8F0418DE70020D6E7B800002022
:100960002DE9F04704464FF000094FF0FF37C56806
:10097000D4E90486A80707D0204600F057F930468E
:10098000FFF7F4FD002802DA3846BDE8F0872805B5
:1009900002D54046FFF738FE4C212046FFF7E8FC21
:1009A000206D20F0010020654846EEE710B50446B2
:1009B000AFF300802046BDE81040FFF70ABC10B539
:1009C00000F07EF9BDE8104000F074B900487047AF
:1009D000B40100207047000000487047BC010020AF
:1009E000704770477047704738B504460A46002084
:1009F0006946AFF30080002808BF38BD0246009961
:100A0000204600F0A4F9012038BD012000F0F3B920
:100A1000F8B5AFF30080054600200C46102000BF5B
:100A20000646A819A0420DD9324669460020AFF308
:100A30000080070008BF00F0DEF90098A04218BF50
:100A40000546C419FFF7C8FF05600746F01D20F0F2
:100A500007004619284600F073F9B44208BFF8BDF4
:100A6000A21B31463868BDE8F84000F070B970B597
:100A70000646FFF7B1FF056806F10B0020F00704FA
:100A8000B4429CBF002070BD2B466A68BAB11068A2
:100A9000A04210D304F1080188423CBF506858605E
:100AA00007D35168101941601168091B0160586033
:100AB0001460101D70BD13465268002AE7D121460C
:100AC0002846FFF791FF0028DED170BD2DE9F041E7
:100AD000044616460D464769007B80072ED03846EF
:100AE000FFF759FD50BB3EB3012E02D0022E25D197
:100AF00004E0204600F045F905441DE03846FFF7C4
:100B000058FDE168002841F01001E16005DA204657
:100B100000F058F80120BDE8F081C9030BD56268E8
:100B2000E16A914200D81146A26911442269891AEA
:100B3000814200DD08460544002D01DA0220EAE783
:100B4000E16A6068E268814206D29103E06203D5FF
:100B500022F4003141F01002A6690027AE4213DCF6
:100B6000E16A814201D90B4600E0034603EB060C23
:100B70002369ACEB030CAC4506DD814201D98C4600
:100B800000E084469C4505D1A760276042F0200024
:100B9000A5620DE0AD1BE669AE1B8142A66000D9DF
:100BA0000846C01A281A20605819606022F02000F8
:100BB00003490840E060002084F84870ABE700007B
:100BC000BFCFD7FFC16821F4001141F08001C1609F
:100BD00000218160016070472DE9F047814614468D
:100BE0000E464FF0FF383248D5685769054209D0A4
:100BF0003846A169FFF7D5FC002811DB2C48C0431B
:100C00000540E5602B46324649463846FFF7B4FCBE
:100C1000A16920F00042B21A11440028A16103D05A
:100C20002046FFF7CFFF4046BDE8F08770B5044689
:100C30000569C06A6168884200D80846E16821F405
:100C40002011E160C90312D5A84208D02246411BF9
:100C50002846FFF7C1FF10B14FF0FF3070BD0020F4
:100C6000E562C4E90150E06820F48030E0600020D3
:100C700070BD10B50446C06820F02000E060A16A95
:100C8000A06988420DD02046FFF7D0FFE06820F42D
:100C9000405040F01000E060A06AA0612069E0626E
:100CA000606044F24001E0688843E06010BD0000ED
:100CB00010000200002801D000F03CB8704700008E
:100CC00010B5014602A000F07DF8012010BD000023
:100CD00053494752545245443A20526564697265FB
:100CE00063743A2063616E2774206F70656E3A20DA
:100CF0000000000010B5431C02E010F8011B71B1A8
:100D00008107FAD14FF0013202C88C1A8C4314EAE1
:100D1000C211F9D0C01A0A0603D0C01E10BDC01AF5
:100D200010BD0A0401D0801E10BD0902FCD0401E77
:100D300010BD000001491820ABBEFEE726000200EE
:100D400000210160C0E90110704710207047034680
:100D500040688C46002818BF88423CBF0346406864
:100D6000F8D318681844884207D00CF1030020F02B
:100D70000700001D411A521A0146081D0A60FFF7BC
:100D800043BC10B50146C268900703D0900607D552
:100D9000886A0AE000F03EF801210160881E10BD5B
:100DA0008B69486818440B69C01A91F848301BB128
:100DB00091F84910401A10BD1103FCD50028FADD46
:100DC000401E10BD70B505460C460A2000E06D1CA3
:100DD00000F018F835B128780028F8D102E0641C3A
:100DE00000F010F814B120780028F8D1BDE8704068
:100DF0000A2000F007B810B500F010F8BDE8104068
:100E0000FFF758BF08B569468DF800000320ABBE58
:100E100008BD000000487047B401002010B501284B
:100E200005D0002103A0FFF7CDFF012010BD09A1CF
:100E3000F8E7000053494752544D454D3A204F754D
:100E400074206F662068656170206D656D6F7279C2
:100E5000000000003A2048656170206D656D6F727A
:100E60007920636F7272757074656400FEE7704775
:100E700010B590F821100022022905D004218163C9
:100E800080F82020012010BD01680B6823F00E03BC
:100E90000B6001680B6823F001030B6090F8403091
:100EA000C46B012101FA03F3636080F8211080F81C
:100EB0002020104610BD00002DE9F05F90F82110B1
:100EC0000024022903D004218163012485E0016804
:100ED0000A6822F00E020A6001680A6822F0010224
:100EE0000A603F4E3E4FB215DFF8F4C0DFF8F090D5
:100EF000DFF8ECA0DFF8E8B0DFF8E4E00168783F65
:100F000013011502ACF1640CA9F15009AAF13C0AD5
:100F1000ABF1280BAEF1140E4FF48018B14227D973
:100F2000B9420ED0614512D049451DD0514518D067
:100F3000594518D0714501D1424615E0294EB142BC
:100F400001D1012210E0274E1436B14201D1102206
:100F50000AE0244E2836B14206D0224A3C32914261
:100F600001D11A4600E02A461E49091F0A602BE0FB
:100F7000B94213D0614517D0494522D051451DD003
:100F800059451DD0714501D142461AE0B14202D106
:100F90004FF0807215E0134EB14201D1012210E0F2
:100FA000104E1436B14201D110220AE00D4E2836FF
:100FB000B14206D00B4A3C32914201D11A4600E0C0
:100FC0002A46074980394A60012180F82110002112
:100FD00080F82010416B01B188472046BDE8F09FA2
:100FE000800002400804024070B5044600F018F981
:100FF0000546601C02D004480078044400F010F953
:10100000401BA042FAD370BD000000202DE9F84F2C
:10101000DFF8C891002409F1040A0AF1040B234601
:101020000F270BF1040ED1E00125A54006EA0502C9
:10103000AA4276D1DFF8A8C14E68A6EB0C08664537
:101040002BD00DDC032E34D005DC36B3012E19D0A5
:10105000022E2FD11BE0112E16D0122E2AD119E00C
:10106000B8F5881F19D006DCB8F5803F15D0B8F563
:10107000801F1FD111E0B8F5001F0ED0B8F5041F76
:1010800018D10AE0CB6815E0CB681B1D12E0CB68D5
:1010900008330FE0CB680C330CE08B682BB1012BCD
:1010A0004FF0080303D0456104E0042302E005612A
:1010B00000E00023FF2A01D8064601E000F1040603
:1010C0004FEA840501D9A5F12005D6F8008007FA7A
:1010D00005FC28EA0C0803FA05F548EA0508C6F8F5
:1010E00000804D68ED0070D53E4DAE6946F00106BA
:1010F000AE61AD6924F0030605F0010500953A4D97
:1011000006EB050CDCF80850A607360F07FA06F8C0
:1011100025EA0805DFF8D480404503D14FF00008E8
:1011200025E052E0DFF8C880404502D14FF00108C9
:101130001DE0DFF8C080404502D14FF0020816E004
:10114000DFF8B480404502D14FF003080FE0DFF82C
:10115000AC80404502D14FF0040808E0DFF8A080E1
:10116000404502D14FF0050801E04FF0060808FAAB
:1011700006F848EA0508CCF808804D68D9F8006000
:10118000ED034D4601D5164300E096432E604D68B1
:10119000DAF80060AD03554601D5164300E09643EA
:1011A0002E604D68DBF80060ED025D4601D5164308
:1011B00000E096432E604D68DEF80060AD02754693
:1011C00001D5164300E096432E60641C0A6816465B
:1011D000E2407FF429AFBDE8F88F00000004014031
:1011E0000000111000100240000001400008014002
:1011F000000C0140001001400014014000180140A3
:10120000001C0140C26821EA02030A4043EA02418D
:10121000016170470AB1016170470904FBE70000F2
:101220000148806870470000000000200248816883
:10123000027811448160704700000020074810B513
:10124000016841F010010160032000F075F80F20E3
:1012500000F006F800F024F8002010BD0020024045
:1012600070B50D4D04464FF47A712878B1FBF0F05B
:101270000A490968B1FBF0F000F07EFB48B9102C78
:1012800007D200222146501E00F036F800206C6084
:1012900070BD012070BD0000000000200C00002087
:1012A0000C4808B5816941F001018161816901F053
:1012B00001010091C16941F08051C161C06900F034
:1012C000805000900448416821F0E06141F00071D5
:1012D000416008BD0010024000000140002809DB09
:1012E00000F01F02012191404009800000F1E02040
:1012F000C0F8001170470000F0B40E4B1B680C469C
:10130000C3F30223C3F10705042D00D90425191DD9
:10131000072901D2002300E0DB1E012606FA05F1B1
:10132000491E214099409E40761E16403143F0BC34
:1013300000F049BE0CED00E0064900F00702086825
:101340004FF6FF03184040EA0220034A10430860AA
:10135000704700000CED00E00000FA052DE9F047B1
:101360000F46050061D0434E306800F00700B842D8
:1013700009D2306820F0070038433060306800F050
:101380000700B84251D128683B4C810712D540076D
:1013900003D5606840F4E06060602878000703D5FA
:1013A000606840F4605060606068A96820F0F000F8
:1013B000084360602878C00728D06868012810D0EA
:1013C0002168022810D0890700292EDA616821F0EF
:1013D000030101436160FFF723FF804641F2883932
:1013E0000DE021688903EFE78901EDE7FFF718FFBA
:1013F000A0EB0801494502D90320BDE8F0876068E9
:10140000696800F00C00B0EB810FEFD1306800F09C
:101410000700B8420BD9306820F00700384330602D
:10142000306800F00700B84201D00120E5E72878D5
:10143000400705D56068E96820F4E0600843606013
:101440002878000706D56068296920F4605040EAD2
:10145000C100606000F038F86168084AC1F3031108
:10146000515CC8400649086006480068FFF7F8FE6E
:101470000020C2E70020024000100240A420000823
:101480000C00002004000020044805490068496859
:10149000044AC1F30221515CC84070470C0000208F
:1014A00000100240B420000804480549006849685B
:1014B000044AC1F3C221515CC84070470C000020AF
:1014C00000100240B420000812A185B00FC98DE8B9
:1014D0000F0014A0144A006804905168134801F0EA
:1014E0000C03042B10D0082B0ED1C1F38343C90386
:1014F0001DF803000AD5516804AAC1F34041515CAC
:101500000A4A5043B0FBF1F005B070470849484320
:10151000FAE7000002030405060708090A0B0C0D90
:101520000E0F1010010200000010024000127A009D
:1015300000093D002DE9F84F040070D02078C04D1F
:10154000C00749D06868C0F38100012807D06868E7
:10155000C0F38100022809D16868C00306D5286855
:10156000800339D560680028E7D035E06068B0F5C1
:10157000803F0BD010B1B0F5A02F11D0286820F417
:1015800080302860286820F4802002E0286840F439
:1015900080302860606890B1FFF742FE06460AE09E
:1015A000286840F480202860F0E700BFFFF738FE8D
:1015B000801B642873D828688003F7D50CE0FFF7F8
:1015C0002FFE064605E000BFFFF72AFE801B6428B9
:1015D000F0D828688003F7D420789A4E80074FF01F
:1015E00001094FF0000839D5686810F00C0F07D0DA
:1015F0006868C0F38100022809D16868C00306D476
:101600002868800714D52069012808D110E02069D6
:10161000B0B1C6F80090FFF703FE074605E00AE107
:10162000FFF7FEFDC01B0228C4D828688007F7D545
:101630002868616920F0F80040EAC10028600DE0E8
:10164000C6F80080FFF7ECFD074604E0FFF7E8FD71
:10165000C01B022823D828688007F7D42078000709
:101660002CD57948A169D9B1C0F80090FFF7D8FD11
:10167000074604E0FFF7D4FDC01B02280FD8686AB4
:101680008007F7D571484FF4FA510068B0FBF1F0CC
:10169000009000BF0098411E0091FAD20EE080E059
:1016A000C0F80080FFF7BCFD074604E0FFF7B8FD77
:1016B000C01B022875D8686A8007F7D420784007D5
:1016C00060D5E8690027C00008D4E86940F0805080
:1016D000E861E869012700F0805000905C480168EB
:1016E000C90513D40168834641F480710160FFF796
:1016F00097FD824606E000BFFFF792FDA0EB0A00CF
:1017000064284ED8DBF80000C005F5D5E068012854
:101710000AD008B1052813D0286A20F001002862F9
:10172000286A20F0040002E0286A40F001002862E4
:10173000E06841F2883B98B1FFF772FD82460BE00A
:10174000286A40F004002862EEE700BFFFF768FD5A
:10175000A0EB0A0159455AD8286A8007F6D50CE053
:10176000FFF75EFD824605E0FFF75AFDA0EB0A0198
:1017700059454CD8286A8007F6D41FB1E86920F093
:101780008050E861E06988B36968C1F3810102298A
:1017900044D00228C6F8608004D0FFF741FD04461B
:1017A00038E034E0FFF73CFD074604E0FFF738FD82
:1017B000C01B02282BD828688001F7D4206AB0F516
:1017C000803F05D16868A16820F400300843686054
:1017D000D4E908010843696821F47411084368607A
:1017E000C6F86090FFF71CFD044606E025E000BF48
:1017F000FFF716FD001B022809D828688001F7D5DD
:101800001BE000BFFFF70CFD001B022802D90320DC
:10181000BDE8F88F28688001F4D40EE00128F7D0E5
:101820006868226A00F48031914204D1616A00F450
:101830007010884201D00120EAE70020E8E70000AC
:101840000010024000004242800442420C0000208E
:101850000070004070B5040009D0606A002540B1F6
:1018600025616561A56294F8510040B10CE001204A
:1018700070BD6068B0F5827FF4D0E561F2E784F86E
:101880005050204600F040F8022084F851002068B3
:10189000016821F040010160A088218900F4827074
:1018A00001F404410843A18901F400610843217C4B
:1018B00001F002010843217D01F001010843218B61
:1018C00001F400710843217F01F03801084394F8C6
:1018D000201001F080010843218D01F400510843DC
:1018E00021680860A069042101EA1040216848606D
:1018F0002068C16921F40061C1616565012084F837
:101900005100002070BD000030B585B00024009467
:1019100001940294039400681449884223D1144826
:10192000816941F480518161816901F480510491A0
:10193000816941F00401816180690E4D00F004006D
:101940000490A0200090022001900320039069469B
:101950002846FFF75BFB4020CDE900046946284696
:101960000294FFF753FB05B030BD0000003001408A
:10197000001002400008014010B5401EB0F1807F09
:1019800001D3012010BD4FF0E02460610F216017EA
:1019900000F019FB0020A06107202061002010BD8D
:1019A00070477047F8B5026804461068D1685369FB
:1019B00010F00F0F4FF0000553D003F0010601F4B3
:1019C000907737435FD0C20705D0CA0503D5226C94
:1019D00042F001022264420705D5DA0703D0226CE7
:1019E00042F002022264820705D5DA0703D0226C96
:1019F00042F004022264020707D501F020023243BC
:101A000003D0226C42F008022264226C002A34D0F7
:101A1000800604D5880602D5204600F015FA206815
:101A20004069216CC0F38010090700D430B3204610
:101A300000F0F2F92068416949061BD5416921F09F
:101A400040014161A06BA8B158494163A06BFFF709
:101A500033FA002811D0A06B416B01B0BDE8F04013
:101A6000084783060FD58B060DD52046BDE8F84004
:101A700000F0EAB92046FFF794FFF8BD2046FFF7D3
:101A800090FF2564F8BD266B2023012E52D1C60697
:101A900050D5CE064ED5106850680090506940066B
:101AA0002AD5A16B086840680004000CEAD0A68D16
:101AB0008642E7D9E0858869202818D0D06820F4CC
:101AC0008070D0602068416921F001014161206887
:101AD000416921F04001416184F83E30256320686E
:101AE000C16821F01001C160A06BFFF7C1F9A08DA2
:101AF000E18D401A81B219E0A08DE18D401A81B2CA
:101B0000E08D0028BED00029BCD0D06820F49070B1
:101B1000D0602068426922F00102426184F83E30C0
:101B200025632068C26822F01002C2602046FFF7D9
:101B300037FFF8BD05062BD50D0629D594F83D00D5
:101B40002128F6D1A068B0F5805F01D12069B0B13D
:101B5000206A411C2162216800784860E08C401EA8
:101B60000004000CE084E4D12068C16821F0800109
:101B7000C1602068C16841F04001C160F8BD206AC1
:101B80000088C0F308005060206A801C2062E5E7EE
:101B90004006F3D54806F1D5D168204621F0400132
:101BA000D16084F83D3000F076F8F8BD091E0008D9
:101BB00070B5040004D094F83D00002510B106E093
:101BC000012070BD84F83C50204600F023F824200A
:101BD00084F83D002068C16821F40051C1602046AE
:101BE00000F08EF92068016921F4904101612068BC
:101BF000416921F02A0141612068C16841F4005126
:101C0000C1602564202084F83D0084F83E00002057
:101C100070BD000030B585B000240094019402949A
:101C200003940068184988422CD11848816941F40E
:101C300080418161816901F480410491816941F0B1
:101C4000040181618069124D00F0040004904FF49A
:101C500000700090022001900320039069462846FE
:101C6000FFF7D4F92815CDE9000469462846029407
:101C7000FFF7CCF9002211462520FFF73DFB252078
:101C8000FFF72CFB05B030BD0038014000100240CA
:101C90000008014070477047FEE70000F0B585B0CE
:101CA000002000900190029003902848816941F043
:101CB00020018161816901F020010491816941F075
:101CC00004018161816901F004010491816941F09D
:101CD0000801816180691E4E00F008000490012215
:101CE00048F210013046FFF795FA1A4F002240F2F1
:101CF0000A213846FFF78EFA01251020CDE90005AC
:101D00000224CDE9025469463046FFF77FF9CDE958
:101D100000450294694638460394FFF777F9A0031B
:101D2000CDE900050320CDE9024069463046FFF7C2
:101D30006DF94FF402700090CDE9015469463846C0
:101D40000394FFF763F905B0F0BD000000100240F6
:101D500000080140000C01400F4810B50D4901601A
:101D60004FF48271416000218160C1604FF40072C4
:101D70000161C0E905121022C0E9072141628162B8
:101D80000A21C162FFF766FD002801D072B6FEE7A6
:101D900010BD0000003001401C000020FEE7FEE7FF
:101DA00070477047FFF742BA30B58FB028216846B8
:101DB000FEF7DEFA14210AA8FEF7DAFA0121080478
:101DC000CDE900100024029402250491CDE90750CA
:101DD0004FF4E01009906846FFF7ACFB08B172B60B
:101DE000FEE70F20CDE90A054FF48060CDE90C40F5
:101DF00002210AA80E94FFF7B1FA002801D072B6AA
:101E0000FEE70FB030BD704710B5406A0021C185B4
:101E1000C184FFF7C6FD10BD0168CA6822F4907244
:101E2000CA6001684A6922F001024A61016B012916
:101E300004D10168CA6822F01002CA60202180F82B
:101E40003E1000210163704708B590F83E1022292A
:101E500001D0022008BD82684FF480539A4201D11C
:101E6000016921B1816A9A421BD04AB10AE0026835
:101E7000816A5268C2F308020A80816A891C08E0FC
:101E8000026972B10268526802F07F020A70816AC8
:101E9000491C8162C18D491E0904090CC18503D00A
:101EA00019E002685268F1E70168CA6822F020026E
:101EB000CA600168CA6822F48072CA6001684A690F
:101EC00022F001024A61202180F83E10016B0129B5
:101ED00003D0FFF7DFFE002008BD00210163016889
:101EE000CA6822F01002CA6001680A68D20602D5E8
:101EF0000A6849680091818DFFF752FDEBE7000009
:101F000070B5044600680169E26821F4405111434C
:101F100001612169A0680843616908432168CA68B2
:101F200041F20C639A430243CA6020684169A26986
:101F300021F44071114341611E492068884202D159
:101F4000FFF7B2FA01E0FFF79FFA00EBC00101EBE7
:101F50000012606864218000B2FBF0F3B3FBF1F380
:101F60006FF018067343B2FBF0F5B2FBF0F605EB29
:101F70008305322303EB0515B5FBF1F5B6FBF1F64E
:101F800005F0F00505EB0615B2FBF0F6B2FBF0F03C
:101F9000B0FBF1F06FF01802504306EB800003EB4A
:101FA0000010B0FBF1F0216800F00F0028448860B9
:101FB00070BD0000003801400148FFF7F3BC00008D
:101FC00074000020FEE70907090E002804DB00F179
:101FD000E02080F80014704700F00F0000F1E020CE
:101FE00080F8141D704730380A2801D2012070474C
:101FF000002070478A68002A01DCFEF72CBB521EC5
:102000008A604A68C0B2531C4B6010707047000071
:10201000FFF714F9FFF7C8FEFFF740FEFFF79CFE3D
:102020001B481A490C2201604FF4165141600021EF
:102030008160C160C0E904128161C161FFF7B8FD30
:1020400008B172B6FEE7134C002208212046FFF7C4
:10205000E1F80A20FEF7C8FF012208212046FFF719
:10206000D9F80D4E4FF400454FF47A770BA0FEF7E8
:10207000D7F802212046FFF7C5F829463046FFF77A
:10208000C1F83846FEF7B0FFF0E700000038014025
:1020900074000020000C01400008014068656C6C71
:1020A0006F000000000000000000000001020304B7
:1020B00006070809000000000102030404000008EC
:1020C000000000000000000200010000103A7474DB
:1020D000003A7474003A747400000000FC20000898
:1020E000000000201C0000006C01000818210008FE
:1020F0001C000020FC07000088010008010000000F
:1021000010000000000000000024F40000000000A7
:082110000000000000000000C7
:0400000508000131BD
:00000001FF
